:100000000C942A000C94AA000C943D010C943C0022
:100010000C943C000C943C000C943C000C943C0070
:100020000C943C000C943C000C943C000C943C0060
:100030000C943C000C943C000C943C000C943C0050
:100040000C943C000C943C000C943C000C943C0040
:100050000C943C0011241FBECFE5D8E0DEBFCDBF1D
:1000600020E0A0E6B0E001C01D92A137B207E1F7A1
:100070000E943E000C945C020C9400008AB38560E0
:100080008ABB81B3806381BB84B3826084BB0E94DE
:1000900072000E94550078940E94890085B38260A6
:1000A00085BB8BB38B7F8BBBF7CF8FB5826A8FBD40
:1000B0008EB589618EBD8FE19EE497BD86BD0895A2
:1000C0009BBD8ABD089513BE81E083BF12BE89B770
:1000D000816089BF089585B7856085BF8BB7806CC7
:1000E0008BBF08958AB380628ABB81B38B7F81BB4B
:1000F00082B3846082BB0E946B000E9463008AB35B
:1001000080688ABB81B3877F81BB82B3886082BBF2
:1001100008958091680081110CC08BB380628BBB05
:1001200085E08A95F1F78BB38F7D8BBB81E080935F
:1001300068008091620081110CC08BB380688BBB1A
:1001400085E08A95F1F78BB38F778BBB81E0809345
:10015000620008951F920F920FB60F9211242F93F1
:100160003F934F935F936F937F938F939F93AF933F
:10017000BF93EF93FF938091600081116DC081E088
:10018000809361008091670081110DC012BE81E0F3
:1001900080936700109263001092640010926500D3
:1001A0001092660059C08091630090916400A09104
:1001B0006500B0916600BA2FA92F982F882722B723
:1001C000BC01CD01620F711D811D911D24E430E041
:1001D00040E050E00E943A022093690030936A00A8
:1001E00040936B0050936C006091690070916A00BD
:1001F00080916B0090916C000E94D90120E030E06A
:1002000040EA51E40E94D4018823D4F48CE697E0BC
:100210000E9460002FE382E49FE0215080409040E4
:10022000E1F700C0000086EB93E00E9460002FE33E
:100230008DE093E0215080409040E1F700C0000045
:100240001092630010926400109265001092660094
:100250001092670010926100FF91EF91BF91AF91F2
:100260009F918F917F916F915F914F913F912F91CE
:100270000F900FBE0F901F9018951F920F920FB600
:100280000F9211242F933F934F935F936F937F931C
:100290008F939F93AF93BF93EF93FF9380916100F0
:1002A000811171C081E080936000809167008111AD
:1002B0000DC012BE81E0809367001092630010921F
:1002C000640010926500109266005DC0809163002A
:1002D00090916400A0916500B0916600BA2FA92F9B
:1002E000982F882722B7BC01CD01620F711D811D97
:1002F000911D24E430E040E050E00E943A02209357
:100300006D0030936E0040936F00509370006091C9
:100310006D0070916E0080916F00909170000E944E
:10032000D90120E030E040EA51E40E94D401882362
:10033000F4F485B38D7F85BB8BB384608BBB8BB3AB
:1003400081608BBB2FE38DE093E021508040904093
:10035000E1F700C000008BB38E7F8BBB2FE38DE0F5
:1003600093E0215080409040E1F700C000001092DF
:100370006300109264001092650010926600109263
:10038000670010926000FF91EF91BF91AF919F9134
:100390008F917F916F915F914F913F912F910F902E
:1003A0000FBE0F901F9018950E94160208F481E06E
:1003B0000895E89409C097FB3EF490958095709558
:1003C00061957F4F8F4F9F4F9923A9F0F92F96E9A1
:1003D000BB279395F695879577956795B795F11116
:1003E000F8CFFAF4BB0F11F460FF1BC06F5F7F4FB3
:1003F0008F4F9F4F16C0882311F096E911C07723C5
:1004000021F09EE8872F762F05C0662371F096E8CD
:10041000862F70E060E02AF09A95660F771F881F9C
:10042000DAF7880F9695879597F90895990F000840
:10043000550FAA0BE0E8FEEF16161706E807F907B6
:10044000C0F012161306E407F50798F0621B730B51
:10045000840B950B39F40A2661F0232B242B252BD2
:1004600021F408950A2609F4A140A6958FEF811D75
:10047000811D0895A1E21A2EAA1BBB1BFD010DC010
:10048000AA1FBB1FEE1FFF1FA217B307E407F50744
:1004900020F0A21BB30BE40BF50B661F771F881F20
:1004A000991F1A9469F760957095809590959B01B6
:0C04B000AC01BD01CF010895F894FFCF0E
:00000001FF
