S0110000536D61727442696E312E73726563C2
S11300000C942A000C94A0000C9488010C943C00DD
S11300100C943C000C940F020C943C000C943C0097
S11300200C943C000C943C000C943C000C9429016E
S11300300C943C000C943C000C943C000C943C004C
S11300400C943C000C943C000C943C000C943C003C
S11300500C943C0011241FBECFE5D8E0DEBFCDBF19
S113006020E0A0E6B0E001C01D92A437B207E1F79A
S11300700E943E000C94D0020C9400008AB381606C
S11300808ABB81B3806381BB0E9481000E946901A5
S11300900E945C0078940E948F0087EA91E60197A1
S11300A0F1F700C000000E94770187EA91E601970A
S11300B0F1F700C00000EFCF8FB5826A8FBD8EB517
S11300C089618EBD8FE19EE497BD86BD08959BBD79
S11300D08ABD089513BE81E083BF12BE89B78160D3
S11300E089BF089515BC81E085BD14BC89B78064BF
S11300F089BF089585B7816085BF8BB780648BBF46
S1130100089581B3816081BB81B38B7F81BB82B34E
S1130110846082BB0E947A000E946A0008958091E4
S1130120650081110CC082B3816082BB85E08A9531
S1130130F1F782B38E7F82BB81E0809365000895DE
S11301401F920F920FB60F9211242F933F934F9348
S11301505F936F937F938F939F93AF93BF93EF932B
S1130160FF9380916500813009F062C08091640042
S113017081110DC012BE81E0809364001092600072
S113018010926100109262001092630051C080913D
S1130190600090916100A0916200B0916300BA2F59
S11301A0A92F982F882722B7BC01CD01620F711D9A
S11301B0811D911D24E430E040E050E00E94AE0235
S11301C020936C0030936D0040936E0050936F0049
S11301D0CA01B9010E944D0220E030E040EA50E437
S11301E00E9448028823D4F486EB93E00E946700BF
S11301F02FE38DE093E0215080409040E1F700C070
S1130200000080E090E00E9467002FE38DE093E01F
S1130210215080409040E1F700C00000109260003F
S113022010926100109262001092630010926400B8
S1130230FF91EF91BF91AF919F918F917F916F91BA
S11302405F914F913F912F910F900FBE0F901F9090
S113025018951F920F920FB60F9211242F938F931C
S11302609F93AF93BF938091600090916100A091A0
S11302706200B09163000196A11DB11D80936000DE
S113028090936100A0936200B09363008B3D924011
S1130290A105B10568F012BE1092650010926400C9
S11302A0109260001092610010926200109263003C
S11302B0BF91AF919F918F912F910F900FBE0F908F
S11302C01F90189585B7846085BF8BB780688BBFF6
S11302D0089581B3826081BB81B3877F81BB82B380
S11302E0886082BB0E9462010E947200089580911E
S11302F06B0081110CC082B3826082BB85E08A9559
S1130300F1F782B38D7F82BB81E080936B00089507
S11303101F920F920FB60F9211242F933F934F9376
S11303205F936F937F938F939F93AF93BF93EF9359
S1130330FF9380916B00813009F060C080916A0066
S113034081110DC014BC81E080936A001092660094
S11303501092670010926800109269004FC080915B
S1130360660090916700A0916800B0916900BA2F6F
S1130370A92F982F882724B5BC01CD01620F711DC8
S1130380811D911D24E430E040E050E00E94AE0263
S11303902093700030937100409372005093730067
S11303A0CA01B9010E944D0220E030E040EA50E465
S11303B00E9448028823C4F48BB381608BBB2FE373
S11303C08DE093E0215080409040E1F700C00000B0
S11303D08BB38E7F8BBB2FE38DE093E02150804065
S11303E09040E1F700C00000109266001092670090
S11303F0109268001092690010926A00FF91EF91C8
S1130400BF91AF919F918F917F916F915F914F9128
S11304103F912F910F900FBE0F901F9018951F9230
S11304200F920FB60F9211242F938F939F93AF9334
S1130430BF938091660090916700A0916800B0918D
S113044069000196A11DB11D809366009093670019
S1130450A0936800B09369008B3D9240A105B1055B
S113046068F014BC10926B0010926A00109266003F
S1130470109267001092680010926900BF91AF91CA
S11304809F918F912F910F900FBE0F901F901895F1
S11304900E948A0208F481E00895E89409C097FB59
S11304A03EF490958095709561957F4F8F4F9F4F47
S11304B09923A9F0F92F96E9BB279395F69587958B
S11304C077956795B795F111F8CFFAF4BB0F11F44E
S11304D060FF1BC06F5F7F4F8F4F9F4F16C08823F5
S11304E011F096E911C0772321F09EE8872F762F2B
S11304F005C0662371F096E8862F70E060E02AF06C
S11305009A95660F771F881FDAF7880F9695879557
S113051097F90895990F0008550FAA0BE0E8FEEF2C
S113052016161706E807F907C0F012161306E407B3
S1130530F50798F0621B730B840B950B39F40A26AC
S113054061F0232B242B252B21F408950A2609F48A
S1130550A140A6958FEF811D811D0895A1E21A2E59
S1130560AA1BBB1BFD010DC0AA1FBB1FEE1FFF1F53
S1130570A217B307E407F50720F0A21BB30BE40BA3
S1130580F50B661F771F881F991F1A9469F76095EA
S11305907095809590959B01AC01BD01CF010895A4
S10705A0F894FFCFF9
S9030000FC
